{
  "_format": "hh-sol-artifact-1",
  "contractName": "Bridge",
  "sourceName": "contracts/Bridge.sol",
  "abi": [
    {
      "inputs": [
        {
          "internalType": "string",
          "name": "chain_",
          "type": "string"
        }
      ],
      "stateMutability": "nonpayable",
      "type": "constructor"
    },
    {
      "anonymous": false,
      "inputs": [
        {
          "indexed": false,
          "internalType": "bytes32",
          "name": "externalId",
          "type": "bytes32"
        }
      ],
      "name": "BridgeFulfilled",
      "type": "event"
    },
    {
      "anonymous": false,
      "inputs": [
        {
          "indexed": false,
          "internalType": "address",
          "name": "account",
          "type": "address"
        }
      ],
      "name": "Paused",
      "type": "event"
    },
    {
      "anonymous": false,
      "inputs": [
        {
          "indexed": false,
          "internalType": "bytes32",
          "name": "id",
          "type": "bytes32"
        },
        {
          "components": [
            {
              "components": [
                {
                  "internalType": "contract IERC721",
                  "name": "imp",
                  "type": "address"
                },
                {
                  "internalType": "uint256",
                  "name": "tokenId",
                  "type": "uint256"
                }
              ],
              "internalType": "struct Bridge.Nft",
              "name": "nft",
              "type": "tuple"
            },
            {
              "components": [
                {
                  "internalType": "string",
                  "name": "chain",
                  "type": "string"
                },
                {
                  "internalType": "address",
                  "name": "receiver",
                  "type": "address"
                }
              ],
              "internalType": "struct Bridge.Destination",
              "name": "dest",
              "type": "tuple"
            }
          ],
          "indexed": false,
          "internalType": "struct Bridge.Bridging",
          "name": "bridging",
          "type": "tuple"
        }
      ],
      "name": "RequestMade",
      "type": "event"
    },
    {
      "anonymous": false,
      "inputs": [
        {
          "indexed": true,
          "internalType": "bytes32",
          "name": "role",
          "type": "bytes32"
        },
        {
          "indexed": true,
          "internalType": "bytes32",
          "name": "previousAdminRole",
          "type": "bytes32"
        },
        {
          "indexed": true,
          "internalType": "bytes32",
          "name": "newAdminRole",
          "type": "bytes32"
        }
      ],
      "name": "RoleAdminChanged",
      "type": "event"
    },
    {
      "anonymous": false,
      "inputs": [
        {
          "indexed": true,
          "internalType": "bytes32",
          "name": "role",
          "type": "bytes32"
        },
        {
          "indexed": true,
          "internalType": "address",
          "name": "account",
          "type": "address"
        },
        {
          "indexed": true,
          "internalType": "address",
          "name": "sender",
          "type": "address"
        }
      ],
      "name": "RoleGranted",
      "type": "event"
    },
    {
      "anonymous": false,
      "inputs": [
        {
          "indexed": true,
          "internalType": "bytes32",
          "name": "role",
          "type": "bytes32"
        },
        {
          "indexed": true,
          "internalType": "address",
          "name": "account",
          "type": "address"
        },
        {
          "indexed": true,
          "internalType": "address",
          "name": "sender",
          "type": "address"
        }
      ],
      "name": "RoleRevoked",
      "type": "event"
    },
    {
      "anonymous": false,
      "inputs": [
        {
          "indexed": false,
          "internalType": "address",
          "name": "account",
          "type": "address"
        }
      ],
      "name": "Unpaused",
      "type": "event"
    },
    {
      "inputs": [],
      "name": "DEFAULT_ADMIN_ROLE",
      "outputs": [
        {
          "internalType": "bytes32",
          "name": "",
          "type": "bytes32"
        }
      ],
      "stateMutability": "view",
      "type": "function"
    },
    {
      "inputs": [],
      "name": "ESCROW_ROLE",
      "outputs": [
        {
          "internalType": "bytes32",
          "name": "",
          "type": "bytes32"
        }
      ],
      "stateMutability": "view",
      "type": "function"
    },
    {
      "inputs": [],
      "name": "chain",
      "outputs": [
        {
          "internalType": "string",
          "name": "",
          "type": "string"
        }
      ],
      "stateMutability": "view",
      "type": "function"
    },
    {
      "inputs": [
        {
          "internalType": "string",
          "name": "",
          "type": "string"
        }
      ],
      "name": "destRules",
      "outputs": [
        {
          "internalType": "uint256",
          "name": "fee",
          "type": "uint256"
        },
        {
          "internalType": "bool",
          "name": "permitted",
          "type": "bool"
        }
      ],
      "stateMutability": "view",
      "type": "function"
    },
    {
      "inputs": [
        {
          "internalType": "bytes32",
          "name": "",
          "type": "bytes32"
        }
      ],
      "name": "externalCompletions",
      "outputs": [
        {
          "internalType": "bool",
          "name": "",
          "type": "bool"
        }
      ],
      "stateMutability": "view",
      "type": "function"
    },
    {
      "inputs": [
        {
          "internalType": "bytes32",
          "name": "id",
          "type": "bytes32"
        }
      ],
      "name": "getBridging",
      "outputs": [
        {
          "components": [
            {
              "components": [
                {
                  "internalType": "contract IERC721",
                  "name": "imp",
                  "type": "address"
                },
                {
                  "internalType": "uint256",
                  "name": "tokenId",
                  "type": "uint256"
                }
              ],
              "internalType": "struct Bridge.Nft",
              "name": "nft",
              "type": "tuple"
            },
            {
              "components": [
                {
                  "internalType": "string",
                  "name": "chain",
                  "type": "string"
                },
                {
                  "internalType": "address",
                  "name": "receiver",
                  "type": "address"
                }
              ],
              "internalType": "struct Bridge.Destination",
              "name": "dest",
              "type": "tuple"
            }
          ],
          "internalType": "struct Bridge.Bridging",
          "name": "",
          "type": "tuple"
        }
      ],
      "stateMutability": "view",
      "type": "function"
    },
    {
      "inputs": [
        {
          "internalType": "bytes32",
          "name": "role",
          "type": "bytes32"
        }
      ],
      "name": "getRoleAdmin",
      "outputs": [
        {
          "internalType": "bytes32",
          "name": "",
          "type": "bytes32"
        }
      ],
      "stateMutability": "view",
      "type": "function"
    },
    {
      "inputs": [
        {
          "internalType": "bytes32",
          "name": "role",
          "type": "bytes32"
        },
        {
          "internalType": "address",
          "name": "account",
          "type": "address"
        }
      ],
      "name": "grantRole",
      "outputs": [],
      "stateMutability": "nonpayable",
      "type": "function"
    },
    {
      "inputs": [
        {
          "internalType": "bytes32",
          "name": "role",
          "type": "bytes32"
        },
        {
          "internalType": "address",
          "name": "account",
          "type": "address"
        }
      ],
      "name": "hasRole",
      "outputs": [
        {
          "internalType": "bool",
          "name": "",
          "type": "bool"
        }
      ],
      "stateMutability": "view",
      "type": "function"
    },
    {
      "inputs": [
        {
          "internalType": "uint256",
          "name": "",
          "type": "uint256"
        }
      ],
      "name": "history",
      "outputs": [
        {
          "internalType": "bytes32",
          "name": "",
          "type": "bytes32"
        }
      ],
      "stateMutability": "view",
      "type": "function"
    },
    {
      "inputs": [],
      "name": "historyLength",
      "outputs": [
        {
          "internalType": "uint256",
          "name": "",
          "type": "uint256"
        }
      ],
      "stateMutability": "view",
      "type": "function"
    },
    {
      "inputs": [
        {
          "internalType": "contract IERC721",
          "name": "",
          "type": "address"
        },
        {
          "internalType": "uint256",
          "name": "",
          "type": "uint256"
        },
        {
          "internalType": "uint256",
          "name": "",
          "type": "uint256"
        }
      ],
      "name": "nftHistory",
      "outputs": [
        {
          "internalType": "bytes32",
          "name": "",
          "type": "bytes32"
        }
      ],
      "stateMutability": "view",
      "type": "function"
    },
    {
      "inputs": [
        {
          "components": [
            {
              "internalType": "contract IERC721",
              "name": "imp",
              "type": "address"
            },
            {
              "internalType": "uint256",
              "name": "tokenId",
              "type": "uint256"
            }
          ],
          "internalType": "struct Bridge.Nft",
          "name": "nft",
          "type": "tuple"
        }
      ],
      "name": "nftHistoryLength",
      "outputs": [
        {
          "internalType": "uint256",
          "name": "",
          "type": "uint256"
        }
      ],
      "stateMutability": "view",
      "type": "function"
    },
    {
      "inputs": [
        {
          "internalType": "address",
          "name": "",
          "type": "address"
        },
        {
          "internalType": "address",
          "name": "",
          "type": "address"
        },
        {
          "internalType": "uint256",
          "name": "",
          "type": "uint256"
        },
        {
          "internalType": "bytes",
          "name": "",
          "type": "bytes"
        }
      ],
      "name": "onERC721Received",
      "outputs": [
        {
          "internalType": "bytes4",
          "name": "",
          "type": "bytes4"
        }
      ],
      "stateMutability": "nonpayable",
      "type": "function"
    },
    {
      "inputs": [],
      "name": "pause",
      "outputs": [],
      "stateMutability": "nonpayable",
      "type": "function"
    },
    {
      "inputs": [],
      "name": "paused",
      "outputs": [
        {
          "internalType": "bool",
          "name": "",
          "type": "bool"
        }
      ],
      "stateMutability": "view",
      "type": "function"
    },
    {
      "inputs": [
        {
          "internalType": "address",
          "name": "",
          "type": "address"
        },
        {
          "internalType": "uint256",
          "name": "",
          "type": "uint256"
        }
      ],
      "name": "personalHistory",
      "outputs": [
        {
          "internalType": "bytes32",
          "name": "",
          "type": "bytes32"
        }
      ],
      "stateMutability": "view",
      "type": "function"
    },
    {
      "inputs": [
        {
          "internalType": "address",
          "name": "addr",
          "type": "address"
        }
      ],
      "name": "personalHistoryLength",
      "outputs": [
        {
          "internalType": "uint256",
          "name": "",
          "type": "uint256"
        }
      ],
      "stateMutability": "view",
      "type": "function"
    },
    {
      "inputs": [
        {
          "components": [
            {
              "components": [
                {
                  "internalType": "contract IERC721",
                  "name": "imp",
                  "type": "address"
                },
                {
                  "internalType": "uint256",
                  "name": "tokenId",
                  "type": "uint256"
                }
              ],
              "internalType": "struct Bridge.Nft",
              "name": "nft",
              "type": "tuple"
            },
            {
              "components": [
                {
                  "internalType": "string",
                  "name": "chain",
                  "type": "string"
                },
                {
                  "internalType": "address",
                  "name": "receiver",
                  "type": "address"
                }
              ],
              "internalType": "struct Bridge.Destination",
              "name": "dest",
              "type": "tuple"
            }
          ],
          "internalType": "struct Bridge.Bridging",
          "name": "bridging",
          "type": "tuple"
        }
      ],
      "name": "queue",
      "outputs": [],
      "stateMutability": "payable",
      "type": "function"
    },
    {
      "inputs": [
        {
          "internalType": "bytes32",
          "name": "externalId",
          "type": "bytes32"
        },
        {
          "components": [
            {
              "internalType": "contract IERC721",
              "name": "imp",
              "type": "address"
            },
            {
              "internalType": "uint256",
              "name": "tokenId",
              "type": "uint256"
            }
          ],
          "internalType": "struct Bridge.Nft",
          "name": "nft",
          "type": "tuple"
        },
        {
          "internalType": "address",
          "name": "to",
          "type": "address"
        }
      ],
      "name": "release",
      "outputs": [],
      "stateMutability": "nonpayable",
      "type": "function"
    },
    {
      "inputs": [
        {
          "internalType": "bytes32",
          "name": "role",
          "type": "bytes32"
        },
        {
          "internalType": "address",
          "name": "account",
          "type": "address"
        }
      ],
      "name": "renounceRole",
      "outputs": [],
      "stateMutability": "nonpayable",
      "type": "function"
    },
    {
      "inputs": [
        {
          "internalType": "bytes32",
          "name": "role",
          "type": "bytes32"
        },
        {
          "internalType": "address",
          "name": "account",
          "type": "address"
        }
      ],
      "name": "revokeRole",
      "outputs": [],
      "stateMutability": "nonpayable",
      "type": "function"
    },
    {
      "inputs": [
        {
          "internalType": "string",
          "name": "chain_",
          "type": "string"
        },
        {
          "components": [
            {
              "internalType": "uint256",
              "name": "fee",
              "type": "uint256"
            },
            {
              "internalType": "bool",
              "name": "permitted",
              "type": "bool"
            }
          ],
          "internalType": "struct Bridge.DestRules",
          "name": "rules",
          "type": "tuple"
        }
      ],
      "name": "setDestRules",
      "outputs": [],
      "stateMutability": "nonpayable",
      "type": "function"
    },
    {
      "inputs": [
        {
          "internalType": "bytes4",
          "name": "interfaceId",
          "type": "bytes4"
        }
      ],
      "name": "supportsInterface",
      "outputs": [
        {
          "internalType": "bool",
          "name": "",
          "type": "bool"
        }
      ],
      "stateMutability": "view",
      "type": "function"
    },
    {
      "inputs": [],
      "name": "unpause",
      "outputs": [],
      "stateMutability": "nonpayable",
      "type": "function"
    },
    {
      "inputs": [],
      "name": "withdraw",
      "outputs": [],
      "stateMutability": "nonpayable",
      "type": "function"
    }
  ],
  "bytecode": "0x60806040527f2fdac322ee704ce09f0773f7f3f92eb98d5e7c836ee9c056cccd5f61041e5e3f6002553480156200003557600080fd5b5060405162003c3638038062003c3683398181016040528101906200005b91906200039a565b6000600160006101000a81548160ff021916908315150217905550806003908162000087919062000636565b506200009d6000801b33620000a460201b60201c565b506200071d565b620000b682826200019560201b60201c565b6200019157600160008084815260200190815260200160002060000160008373ffffffffffffffffffffffffffffffffffffffff1673ffffffffffffffffffffffffffffffffffffffff16815260200190815260200160002060006101000a81548160ff02191690831515021790555062000136620001ff60201b60201c565b73ffffffffffffffffffffffffffffffffffffffff168173ffffffffffffffffffffffffffffffffffffffff16837f2f8788117e7eff1d82e926ec794901d17c78024a50270940304540a733656f0d60405160405180910390a45b5050565b600080600084815260200190815260200160002060000160008373ffffffffffffffffffffffffffffffffffffffff1673ffffffffffffffffffffffffffffffffffffffff16815260200190815260200160002060009054906101000a900460ff16905092915050565b600033905090565b6000604051905090565b600080fd5b600080fd5b600080fd5b600080fd5b6000601f19601f8301169050919050565b7f4e487b7100000000000000000000000000000000000000000000000000000000600052604160045260246000fd5b620002708262000225565b810181811067ffffffffffffffff8211171562000292576200029162000236565b5b80604052505050565b6000620002a762000207565b9050620002b5828262000265565b919050565b600067ffffffffffffffff821115620002d857620002d762000236565b5b620002e38262000225565b9050602081019050919050565b60005b8381101562000310578082015181840152602081019050620002f3565b60008484015250505050565b6000620003336200032d84620002ba565b6200029b565b90508281526020810184848401111562000352576200035162000220565b5b6200035f848285620002f0565b509392505050565b600082601f8301126200037f576200037e6200021b565b5b8151620003918482602086016200031c565b91505092915050565b600060208284031215620003b357620003b262000211565b5b600082015167ffffffffffffffff811115620003d457620003d362000216565b5b620003e28482850162000367565b91505092915050565b600081519050919050565b7f4e487b7100000000000000000000000000000000000000000000000000000000600052602260045260246000fd5b600060028204905060018216806200043e57607f821691505b602082108103620004545762000453620003f6565b5b50919050565b60008190508160005260206000209050919050565b60006020601f8301049050919050565b600082821b905092915050565b600060088302620004be7fffffffffffffffffffffffffffffffffffffffffffffffffffffffffffffffff826200047f565b620004ca86836200047f565b95508019841693508086168417925050509392505050565b6000819050919050565b6000819050919050565b600062000517620005116200050b84620004e2565b620004ec565b620004e2565b9050919050565b6000819050919050565b6200053383620004f6565b6200054b62000542826200051e565b8484546200048c565b825550505050565b600090565b6200056262000553565b6200056f81848462000528565b505050565b5b8181101562000597576200058b60008262000558565b60018101905062000575565b5050565b601f821115620005e657620005b0816200045a565b620005bb846200046f565b81016020851015620005cb578190505b620005e3620005da856200046f565b83018262000574565b50505b505050565b600082821c905092915050565b60006200060b60001984600802620005eb565b1980831691505092915050565b6000620006268383620005f8565b9150826002028217905092915050565b6200064182620003eb565b67ffffffffffffffff8111156200065d576200065c62000236565b5b62000669825462000425565b620006768282856200059b565b600060209050601f831160018114620006ae576000841562000699578287015190505b620006a5858262000618565b86555062000715565b601f198416620006be866200045a565b60005b82811015620006e857848901518255600182019150602085019450602081019050620006c1565b8683101562000708578489015162000704601f891682620005f8565b8355505b6001600288020188555050505b505050505050565b613509806200072d6000396000f3fe6080604052600436106101815760003560e01c80638456cb59116100d1578063a94c1b951161008a578063c763e5a111610064578063c763e5a1146105c0578063cba129c4146105eb578063d547741f14610614578063f1279c8c1461063d57610181565b8063a94c1b9514610508578063b2f7d3cf14610546578063bed6c9ff1461058357610181565b80638456cb59146103e65780638cf6678b146103fd57806391d148541461043a578063a217fddf14610477578063a44a88f9146104a2578063a7a38f0b146104cb57610181565b80633a0137871161013e57806354511f271161011857806354511f27146103375780635c975abb146103535780636ce76f301461037e578063776b2f16146103a957610181565b80633a013787146102cc5780633ccfd60b146103095780633f4ba83a1461032057610181565b806301ffc9a714610186578063150b7a02146101c3578063248a9ca3146102005780632f2ff15d1461023d57806334819da31461026657806336568abe146102a3575b600080fd5b34801561019257600080fd5b506101ad60048036038101906101a89190611aa9565b610668565b6040516101ba9190611af1565b60405180910390f35b3480156101cf57600080fd5b506101ea60048036038101906101e59190611ce6565b6106e2565b6040516101f79190611d78565b60405180910390f35b34801561020c57600080fd5b5061022760048036038101906102229190611dc9565b6106f6565b6040516102349190611e05565b60405180910390f35b34801561024957600080fd5b50610264600480360381019061025f9190611e20565b610715565b005b34801561027257600080fd5b5061028d60048036038101906102889190611dc9565b610736565b60405161029a9190611af1565b60405180910390f35b3480156102af57600080fd5b506102ca60048036038101906102c59190611e20565b610756565b005b3480156102d857600080fd5b506102f360048036038101906102ee9190611e9e565b6107d9565b6040516103009190611e05565b60405180910390f35b34801561031557600080fd5b5061031e610817565b005b34801561032c57600080fd5b5061033561089e565b005b610351600480360381019061034c9190611f15565b6108b6565b005b34801561035f57600080fd5b50610368610c24565b6040516103759190611af1565b60405180910390f35b34801561038a57600080fd5b50610393610c3b565b6040516103a09190611e05565b60405180910390f35b3480156103b557600080fd5b506103d060048036038101906103cb9190611dc9565b610c41565b6040516103dd9190612103565b60405180910390f35b3480156103f257600080fd5b506103fb610e38565b005b34801561040957600080fd5b50610424600480360381019061041f9190612125565b610e50565b6040516104319190612161565b60405180910390f35b34801561044657600080fd5b50610461600480360381019061045c9190611e20565b610e9c565b60405161046e9190611af1565b60405180910390f35b34801561048357600080fd5b5061048c610f06565b6040516104999190611e05565b60405180910390f35b3480156104ae57600080fd5b506104c960048036038101906104c4919061219b565b610f0d565b005b3480156104d757600080fd5b506104f260048036038101906104ed91906121ee565b611068565b6040516104ff9190611e05565b60405180910390f35b34801561051457600080fd5b5061052f600480360381019061052a91906122bc565b61108c565b60405161053d929190612305565b60405180910390f35b34801561055257600080fd5b5061056d6004803603810190610568919061232e565b6110d3565b60405161057a9190611e05565b60405180910390f35b34801561058f57600080fd5b506105aa60048036038101906105a5919061236e565b611104565b6040516105b79190612161565b60405180910390f35b3480156105cc57600080fd5b506105d561112a565b6040516105e291906123e5565b60405180910390f35b3480156105f757600080fd5b50610612600480360381019061060d9190612486565b6111b8565b005b34801561062057600080fd5b5061063b60048036038101906106369190611e20565b6111fb565b005b34801561064957600080fd5b5061065261121c565b60405161065f9190612161565b60405180910390f35b60007f7965db0b000000000000000000000000000000000000000000000000000000007bffffffffffffffffffffffffffffffffffffffffffffffffffffffff1916827bffffffffffffffffffffffffffffffffffffffffffffffffffffffff191614806106db57506106da82611229565b5b9050919050565b600063150b7a0260e01b9050949350505050565b6000806000838152602001908152602001600020600101549050919050565b61071e826106f6565b61072781611293565b61073183836112a7565b505050565b60096020528060005260406000206000915054906101000a900460ff1681565b61075e611387565b73ffffffffffffffffffffffffffffffffffffffff168173ffffffffffffffffffffffffffffffffffffffff16146107cb576040517f08c379a00000000000000000000000000000000000000000000000000000000081526004016107c290612558565b60405180910390fd5b6107d5828261138f565b5050565b6006602052826000526040600020602052816000526040600020818154811061080157600080fd5b9060005260206000200160009250925050505481565b6000801b61082481611293565b60003373ffffffffffffffffffffffffffffffffffffffff164760405161084a906125a9565b60006040518083038185875af1925050503d8060008114610887576040519150601f19603f3d011682016040523d82523d6000602084013e61088c565b606091505b505090508061089a57600080fd5b5050565b6000801b6108ab81611293565b6108b3611470565b50565b6000600a8280604001906108ca91906125cd565b80600001906108d991906125f5565b6040516108e7929190612688565b908152602001604051809103902090508060010160009054906101000a900460ff16610948576040517f08c379a000000000000000000000000000000000000000000000000000000000815260040161093f906126ed565b60405180910390fd5b8060000154341461095857600080fd5b36826000019050806000016020810190610972919061270d565b73ffffffffffffffffffffffffffffffffffffffff166323b872dd333084602001356040518463ffffffff1660e01b81526004016109b293929190612749565b600060405180830381600087803b1580156109cc57600080fd5b505af11580156109e0573d6000803e3d6000fd5b5050505060006109ee6114d3565b9050604051806040016040528060011515815260200185610a0e906128b2565b8152506008600083815260200190815260200160002060008201518160000160006101000a81548160ff02191690831515021790555060208201518160010160008201518160000160008201518160000160006101000a81548173ffffffffffffffffffffffffffffffffffffffff021916908373ffffffffffffffffffffffffffffffffffffffff1602179055506020820151816001015550506020820151816002016000820151816000019081610ac79190612ac7565b5060208201518160010160006101000a81548173ffffffffffffffffffffffffffffffffffffffff021916908373ffffffffffffffffffffffffffffffffffffffff16021790555050505050905050600560003373ffffffffffffffffffffffffffffffffffffffff1673ffffffffffffffffffffffffffffffffffffffff168152602001908152602001600020819080600181540180825580915050600190039060005260206000200160009091909190915055610b9582803603810190610b909190612b99565b611564565b81908060018154018082558091505060019003906000526020600020016000909190919091505560078190806001815401808255809150506001900390600052602060002001600090919091909150557f8be374180872c6982a515cd04d20cb25b0d71cc034ae4d822bf9d1d56a7bb2ab8185604051610c16929190612db8565b60405180910390a150505050565b6000600160009054906101000a900460ff16905090565b60025481565b610c496119b7565b60006008600084815260200190815260200160002090508060000160009054906101000a900460ff16610cb1576040517f08c379a0000000000000000000000000000000000000000000000000000000008152600401610ca890612e34565b60405180910390fd5b80600101604051806040016040529081600082016040518060400160405290816000820160009054906101000a900473ffffffffffffffffffffffffffffffffffffffff1673ffffffffffffffffffffffffffffffffffffffff1673ffffffffffffffffffffffffffffffffffffffff168152602001600182015481525050815260200160028201604051806040016040529081600082018054610d54906128f4565b80601f0160208091040260200160405190810160405280929190818152602001828054610d80906128f4565b8015610dcd5780601f10610da257610100808354040283529160200191610dcd565b820191906000526020600020905b815481529060010190602001808311610db057829003601f168201915b505050505081526020016001820160009054906101000a900473ffffffffffffffffffffffffffffffffffffffff1673ffffffffffffffffffffffffffffffffffffffff1673ffffffffffffffffffffffffffffffffffffffff168152505081525050915050919050565b6000801b610e4581611293565b610e4d6115c5565b50565b6000600560008373ffffffffffffffffffffffffffffffffffffffff1673ffffffffffffffffffffffffffffffffffffffff168152602001908152602001600020805490509050919050565b600080600084815260200190815260200160002060000160008373ffffffffffffffffffffffffffffffffffffffff1673ffffffffffffffffffffffffffffffffffffffff16815260200190815260200160002060009054906101000a900460ff16905092915050565b6000801b81565b600254610f1981611293565b6009600085815260200190815260200160002060009054906101000a900460ff1615610f7a576040517f08c379a0000000000000000000000000000000000000000000000000000000008152600401610f7190612ea0565b60405180910390fd5b826000016020810190610f8d919061270d565b73ffffffffffffffffffffffffffffffffffffffff166323b872dd308486602001356040518463ffffffff1660e01b8152600401610fcd93929190612749565b600060405180830381600087803b158015610fe757600080fd5b505af1158015610ffb573d6000803e3d6000fd5b5050505060016009600086815260200190815260200160002060006101000a81548160ff0219169083151502179055507f05bc99830e1a3ba54408887bd41c1ca8a440de6e99973bd12e12c03e7de202878460405161105a9190611e05565b60405180910390a150505050565b6007818154811061107857600080fd5b906000526020600020016000915090505481565b600a818051602081018201805184825260208301602085012081835280955050505050506000915090508060000154908060010160009054906101000a900460ff16905082565b600560205281600052604060002081815481106110ef57600080fd5b90600052602060002001600091509150505481565b600061111f8280360381019061111a9190612b99565b611564565b805490509050919050565b60038054611137906128f4565b80601f0160208091040260200160405190810160405280929190818152602001828054611163906128f4565b80156111b05780601f10611185576101008083540402835291602001916111b0565b820191906000526020600020905b81548152906001019060200180831161119357829003601f168201915b505050505081565b6000801b6111c581611293565b81600a85856040516111d8929190612688565b908152602001604051809103902081816111f2919061301d565b90505050505050565b611204826106f6565b61120d81611293565b611217838361138f565b505050565b6000600780549050905090565b60007f01ffc9a7000000000000000000000000000000000000000000000000000000007bffffffffffffffffffffffffffffffffffffffffffffffffffffffff1916827bffffffffffffffffffffffffffffffffffffffffffffffffffffffff1916149050919050565b6112a48161129f611387565b611627565b50565b6112b18282610e9c565b61138357600160008084815260200190815260200160002060000160008373ffffffffffffffffffffffffffffffffffffffff1673ffffffffffffffffffffffffffffffffffffffff16815260200190815260200160002060006101000a81548160ff021916908315150217905550611328611387565b73ffffffffffffffffffffffffffffffffffffffff168173ffffffffffffffffffffffffffffffffffffffff16837f2f8788117e7eff1d82e926ec794901d17c78024a50270940304540a733656f0d60405160405180910390a45b5050565b600033905090565b6113998282610e9c565b1561146c57600080600084815260200190815260200160002060000160008373ffffffffffffffffffffffffffffffffffffffff1673ffffffffffffffffffffffffffffffffffffffff16815260200190815260200160002060006101000a81548160ff021916908315150217905550611411611387565b73ffffffffffffffffffffffffffffffffffffffff168173ffffffffffffffffffffffffffffffffffffffff16837ff6391f5c32d9c69d2a47ea670b442974b53935d1edc7fd64eb21e047a839171b60405160405180910390a45b5050565b6114786116c4565b6000600160006101000a81548160ff0219169083151502179055507f5db9ee0a495bf2e6ff9c91a7834c1ba4fdd244a5e8aa4e537bd38aeae4b073aa6114bc611387565b6040516114c9919061302b565b60405180910390a1565b6000806114e0600461170d565b90506114ec600461171b565b60026003826040516020016115029291906130ca565b60405160208183030381529060405260405161151e9190613136565b602060405180830381855afa15801561153b573d6000803e3d6000fd5b5050506040513d601f19601f8201168201806040525081019061155e9190613162565b91505090565b600060066000836000015173ffffffffffffffffffffffffffffffffffffffff1673ffffffffffffffffffffffffffffffffffffffff1681526020019081526020016000206000836020015181526020019081526020016000209050919050565b6115cd611731565b60018060006101000a81548160ff0219169083151502179055507f62e78cea01bee320cd4e420270b5ea74000d11b0c9f74754ebdbfc544b05a258611610611387565b60405161161d919061302b565b60405180910390a1565b6116318282610e9c565b6116c0576116568173ffffffffffffffffffffffffffffffffffffffff16601461177b565b6116648360001c602061177b565b604051602001611675929190613258565b6040516020818303038152906040526040517f08c379a00000000000000000000000000000000000000000000000000000000081526004016116b791906123e5565b60405180910390fd5b5050565b6116cc610c24565b61170b576040517f08c379a0000000000000000000000000000000000000000000000000000000008152600401611702906132de565b60405180910390fd5b565b600081600001549050919050565b6001816000016000828254019250508190555050565b611739610c24565b15611779576040517f08c379a00000000000000000000000000000000000000000000000000000000081526004016117709061334a565b60405180910390fd5b565b60606000600283600261178e9190613399565b61179891906133db565b67ffffffffffffffff8111156117b1576117b0611bbb565b5b6040519080825280601f01601f1916602001820160405280156117e35781602001600182028036833780820191505090505b5090507f30000000000000000000000000000000000000000000000000000000000000008160008151811061181b5761181a61340f565b5b60200101907effffffffffffffffffffffffffffffffffffffffffffffffffffffffffffff1916908160001a9053507f78000000000000000000000000000000000000000000000000000000000000008160018151811061187f5761187e61340f565b5b60200101907effffffffffffffffffffffffffffffffffffffffffffffffffffffffffffff1916908160001a905350600060018460026118bf9190613399565b6118c991906133db565b90505b6001811115611969577f3031323334353637383961626364656600000000000000000000000000000000600f86166010811061190b5761190a61340f565b5b1a60f81b8282815181106119225761192161340f565b5b60200101907effffffffffffffffffffffffffffffffffffffffffffffffffffffffffffff1916908160001a905350600485901c9450806119629061343e565b90506118cc565b50600084146119ad576040517f08c379a00000000000000000000000000000000000000000000000000000000081526004016119a4906134b3565b60405180910390fd5b8091505092915050565b60405180604001604052806119ca6119dd565b81526020016119d7611a0d565b81525090565b6040518060400160405280600073ffffffffffffffffffffffffffffffffffffffff168152602001600081525090565b604051806040016040528060608152602001600073ffffffffffffffffffffffffffffffffffffffff1681525090565b6000604051905090565b600080fd5b600080fd5b60007fffffffff0000000000000000000000000000000000000000000000000000000082169050919050565b611a8681611a51565b8114611a9157600080fd5b50565b600081359050611aa381611a7d565b92915050565b600060208284031215611abf57611abe611a47565b5b6000611acd84828501611a94565b91505092915050565b60008115159050919050565b611aeb81611ad6565b82525050565b6000602082019050611b066000830184611ae2565b92915050565b600073ffffffffffffffffffffffffffffffffffffffff82169050919050565b6000611b3782611b0c565b9050919050565b611b4781611b2c565b8114611b5257600080fd5b50565b600081359050611b6481611b3e565b92915050565b6000819050919050565b611b7d81611b6a565b8114611b8857600080fd5b50565b600081359050611b9a81611b74565b92915050565b600080fd5b600080fd5b6000601f19601f8301169050919050565b7f4e487b7100000000000000000000000000000000000000000000000000000000600052604160045260246000fd5b611bf382611baa565b810181811067ffffffffffffffff82111715611c1257611c11611bbb565b5b80604052505050565b6000611c25611a3d565b9050611c318282611bea565b919050565b600067ffffffffffffffff821115611c5157611c50611bbb565b5b611c5a82611baa565b9050602081019050919050565b82818337600083830152505050565b6000611c89611c8484611c36565b611c1b565b905082815260208101848484011115611ca557611ca4611ba5565b5b611cb0848285611c67565b509392505050565b600082601f830112611ccd57611ccc611ba0565b5b8135611cdd848260208601611c76565b91505092915050565b60008060008060808587031215611d0057611cff611a47565b5b6000611d0e87828801611b55565b9450506020611d1f87828801611b55565b9350506040611d3087828801611b8b565b925050606085013567ffffffffffffffff811115611d5157611d50611a4c565b5b611d5d87828801611cb8565b91505092959194509250565b611d7281611a51565b82525050565b6000602082019050611d8d6000830184611d69565b92915050565b6000819050919050565b611da681611d93565b8114611db157600080fd5b50565b600081359050611dc381611d9d565b92915050565b600060208284031215611ddf57611dde611a47565b5b6000611ded84828501611db4565b91505092915050565b611dff81611d93565b82525050565b6000602082019050611e1a6000830184611df6565b92915050565b60008060408385031215611e3757611e36611a47565b5b6000611e4585828601611db4565b9250506020611e5685828601611b55565b9150509250929050565b6000611e6b82611b2c565b9050919050565b611e7b81611e60565b8114611e8657600080fd5b50565b600081359050611e9881611e72565b92915050565b600080600060608486031215611eb757611eb6611a47565b5b6000611ec586828701611e89565b9350506020611ed686828701611b8b565b9250506040611ee786828701611b8b565b9150509250925092565b600080fd5b600060608284031215611f0c57611f0b611ef1565b5b81905092915050565b600060208284031215611f2b57611f2a611a47565b5b600082013567ffffffffffffffff811115611f4957611f48611a4c565b5b611f5584828501611ef6565b91505092915050565b6000819050919050565b6000611f83611f7e611f7984611b0c565b611f5e565b611b0c565b9050919050565b6000611f9582611f68565b9050919050565b6000611fa782611f8a565b9050919050565b611fb781611f9c565b82525050565b611fc681611b6a565b82525050565b604082016000820151611fe26000850182611fae565b506020820151611ff56020850182611fbd565b50505050565b600081519050919050565b600082825260208201905092915050565b60005b8381101561203557808201518184015260208101905061201a565b60008484015250505050565b600061204c82611ffb565b6120568185612006565b9350612066818560208601612017565b61206f81611baa565b840191505092915050565b61208381611b2c565b82525050565b600060408301600083015184820360008601526120a68282612041565b91505060208301516120bb602086018261207a565b508091505092915050565b60006060830160008301516120de6000860182611fcc565b50602083015184820360408601526120f68282612089565b9150508091505092915050565b6000602082019050818103600083015261211d81846120c6565b905092915050565b60006020828403121561213b5761213a611a47565b5b600061214984828501611b55565b91505092915050565b61215b81611b6a565b82525050565b60006020820190506121766000830184612152565b92915050565b60006040828403121561219257612191611ef1565b5b81905092915050565b6000806000608084860312156121b4576121b3611a47565b5b60006121c286828701611db4565b93505060206121d38682870161217c565b92505060606121e486828701611b55565b9150509250925092565b60006020828403121561220457612203611a47565b5b600061221284828501611b8b565b91505092915050565b600067ffffffffffffffff82111561223657612235611bbb565b5b61223f82611baa565b9050602081019050919050565b600061225f61225a8461221b565b611c1b565b90508281526020810184848401111561227b5761227a611ba5565b5b612286848285611c67565b509392505050565b600082601f8301126122a3576122a2611ba0565b5b81356122b384826020860161224c565b91505092915050565b6000602082840312156122d2576122d1611a47565b5b600082013567ffffffffffffffff8111156122f0576122ef611a4c565b5b6122fc8482850161228e565b91505092915050565b600060408201905061231a6000830185612152565b6123276020830184611ae2565b9392505050565b6000806040838503121561234557612344611a47565b5b600061235385828601611b55565b925050602061236485828601611b8b565b9150509250929050565b60006040828403121561238457612383611a47565b5b60006123928482850161217c565b91505092915050565b600082825260208201905092915050565b60006123b782611ffb565b6123c1818561239b565b93506123d1818560208601612017565b6123da81611baa565b840191505092915050565b600060208201905081810360008301526123ff81846123ac565b905092915050565b600080fd5b600080fd5b60008083601f84011261242757612426611ba0565b5b8235905067ffffffffffffffff81111561244457612443612407565b5b6020830191508360018202830111156124605761245f61240c565b5b9250929050565b60006040828403121561247d5761247c611ef1565b5b81905092915050565b60008060006060848603121561249f5761249e611a47565b5b600084013567ffffffffffffffff8111156124bd576124bc611a4c565b5b6124c986828701612411565b935093505060206124dc86828701612467565b9150509250925092565b7f416363657373436f6e74726f6c3a2063616e206f6e6c792072656e6f756e636560008201527f20726f6c657320666f722073656c660000000000000000000000000000000000602082015250565b6000612542602f8361239b565b915061254d826124e6565b604082019050919050565b6000602082019050818103600083015261257181612535565b9050919050565b600081905092915050565b50565b6000612593600083612578565b915061259e82612583565b600082019050919050565b60006125b482612586565b9150819050919050565b600080fd5b600080fd5b600080fd5b6000823560016040038336030381126125e9576125e86125be565b5b80830191505092915050565b60008083356001602003843603038112612612576126116125be565b5b80840192508235915067ffffffffffffffff821115612634576126336125c3565b5b6020830192506001820236038313156126505761264f6125c8565b5b509250929050565b600081905092915050565b600061266f8385612658565b935061267c838584611c67565b82840190509392505050565b6000612695828486612663565b91508190509392505050565b7f43616e6e6f742062726964676520746f207468697320636861696e2e00000000600082015250565b60006126d7601c8361239b565b91506126e2826126a1565b602082019050919050565b60006020820190508181036000830152612706816126ca565b9050919050565b60006020828403121561272357612722611a47565b5b600061273184828501611e89565b91505092915050565b61274381611b2c565b82525050565b600060608201905061275e600083018661273a565b61276b602083018561273a565b6127786040830184612152565b949350505050565b600080fd5b600080fd5b6000604082840312156127a05761279f612780565b5b6127aa6040611c1b565b905060006127ba84828501611e89565b60008301525060206127ce84828501611b8b565b60208301525092915050565b6000604082840312156127f0576127ef612780565b5b6127fa6040611c1b565b9050600082013567ffffffffffffffff81111561281a57612819612785565b5b6128268482850161228e565b600083015250602061283a84828501611b55565b60208301525092915050565b60006060828403121561285c5761285b612780565b5b6128666040611c1b565b905060006128768482850161278a565b600083015250604082013567ffffffffffffffff81111561289a57612899612785565b5b6128a6848285016127da565b60208301525092915050565b60006128be3683612846565b9050919050565b7f4e487b7100000000000000000000000000000000000000000000000000000000600052602260045260246000fd5b6000600282049050600182168061290c57607f821691505b60208210810361291f5761291e6128c5565b5b50919050565b60008190508160005260206000209050919050565b60006020601f8301049050919050565b600082821b905092915050565b6000600883026129877fffffffffffffffffffffffffffffffffffffffffffffffffffffffffffffffff8261294a565b612991868361294a565b95508019841693508086168417925050509392505050565b60006129c46129bf6129ba84611b6a565b611f5e565b611b6a565b9050919050565b6000819050919050565b6129de836129a9565b6129f26129ea826129cb565b848454612957565b825550505050565b600090565b612a076129fa565b612a128184846129d5565b505050565b5b81811015612a3657612a2b6000826129ff565b600181019050612a18565b5050565b601f821115612a7b57612a4c81612925565b612a558461293a565b81016020851015612a64578190505b612a78612a708561293a565b830182612a17565b50505b505050565b600082821c905092915050565b6000612a9e60001984600802612a80565b1980831691505092915050565b6000612ab78383612a8d565b9150826002028217905092915050565b612ad082611ffb565b67ffffffffffffffff811115612ae957612ae8611bbb565b5b612af382546128f4565b612afe828285612a3a565b600060209050601f831160018114612b315760008415612b1f578287015190505b612b298582612aab565b865550612b91565b601f198416612b3f86612925565b60005b82811015612b6757848901518255600182019150602085019450602081019050612b42565b86831015612b845784890151612b80601f891682612a8d565b8355505b6001600288020188555050505b505050505050565b600060408284031215612baf57612bae611a47565b5b6000612bbd8482850161278a565b91505092915050565b600082905092915050565b6000612be06020840184611e89565b905092915050565b6000612bf76020840184611b8b565b905092915050565b60408201612c106000830183612bd1565b612c1d6000850182611fae565b50612c2b6020830183612be8565b612c386020850182611fbd565b50505050565b600080fd5b600082356001604003833603038112612c5f57612c5e612c3e565b5b82810191505092915050565b600080fd5b600080fd5b60008083356001602003843603038112612c9257612c91612c3e565b5b83810192508235915060208301925067ffffffffffffffff821115612cba57612cb9612c6b565b5b600182023603831315612cd057612ccf612c70565b5b509250929050565b6000612ce48385612006565b9350612cf1838584611c67565b612cfa83611baa565b840190509392505050565b6000612d146020840184611b55565b905092915050565b600060408301612d2f6000840184612c75565b8583036000870152612d42838284612cd8565b92505050612d536020840184612d05565b612d60602086018261207a565b508091505092915050565b600060608301612d7e6000840184612bc6565b612d8b6000860182612bff565b50612d996040840184612c43565b8482036040860152612dab8282612d1c565b9150508091505092915050565b6000604082019050612dcd6000830185611df6565b8181036020830152612ddf8184612d6b565b90509392505050565b7f446f6573206e6f742065786973742e0000000000000000000000000000000000600082015250565b6000612e1e600f8361239b565b9150612e2982612de8565b602082019050919050565b60006020820190508181036000830152612e4d81612e11565b9050919050565b7f416c72656164792066756c66696c6c65642e0000000000000000000000000000600082015250565b6000612e8a60128361239b565b9150612e9582612e54565b602082019050919050565b60006020820190508181036000830152612eb981612e7d565b9050919050565b60008135612ecd81611b74565b80915050919050565b60008160001b9050919050565b60007fffffffffffffffffffffffffffffffffffffffffffffffffffffffffffffffff612f0f84612ed6565b9350801983169250808416831791505092915050565b612f2e826129a9565b612f41612f3a826129cb565b8354612ee3565b8255505050565b612f5181611ad6565b8114612f5c57600080fd5b50565b60008135612f6c81612f48565b80915050919050565b600060ff612f8284612ed6565b9350801983169250808416831791505092915050565b6000612fa382611ad6565b9050919050565b6000819050919050565b612fbd82612f98565b612fd0612fc982612faa565b8354612f75565b8255505050565b600081016000830180612fe981612ec0565b9050612ff58184612f25565b50505060018101602083018061300a81612f5f565b90506130168184612fb4565b5050505050565b6130278282612fd7565b5050565b6000602082019050613040600083018461273a565b92915050565b60008154613053816128f4565b61305d818661239b565b94506001821660008114613078576001811461308e576130c1565b60ff1983168652811515602002860193506130c1565b61309785612925565b60005b838110156130b95781548189015260018201915060208101905061309a565b808801955050505b50505092915050565b600060408201905081810360008301526130e48185613046565b90506130f36020830184612152565b9392505050565b600081519050919050565b6000613110826130fa565b61311a8185612578565b935061312a818560208601612017565b80840191505092915050565b60006131428284613105565b915081905092915050565b60008151905061315c81611d9d565b92915050565b60006020828403121561317857613177611a47565b5b60006131868482850161314d565b91505092915050565b7f416363657373436f6e74726f6c3a206163636f756e7420000000000000000000600082015250565b60006131c5601783612658565b91506131d08261318f565b601782019050919050565b60006131e682611ffb565b6131f08185612658565b9350613200818560208601612017565b80840191505092915050565b7f206973206d697373696e6720726f6c6520000000000000000000000000000000600082015250565b6000613242601183612658565b915061324d8261320c565b601182019050919050565b6000613263826131b8565b915061326f82856131db565b915061327a82613235565b915061328682846131db565b91508190509392505050565b7f5061757361626c653a206e6f7420706175736564000000000000000000000000600082015250565b60006132c860148361239b565b91506132d382613292565b602082019050919050565b600060208201905081810360008301526132f7816132bb565b9050919050565b7f5061757361626c653a2070617573656400000000000000000000000000000000600082015250565b600061333460108361239b565b915061333f826132fe565b602082019050919050565b6000602082019050818103600083015261336381613327565b9050919050565b7f4e487b7100000000000000000000000000000000000000000000000000000000600052601160045260246000fd5b60006133a482611b6a565b91506133af83611b6a565b92508282026133bd81611b6a565b915082820484148315176133d4576133d361336a565b5b5092915050565b60006133e682611b6a565b91506133f183611b6a565b92508282019050808211156134095761340861336a565b5b92915050565b7f4e487b7100000000000000000000000000000000000000000000000000000000600052603260045260246000fd5b600061344982611b6a565b91506000820361345c5761345b61336a565b5b600182039050919050565b7f537472696e67733a20686578206c656e67746820696e73756666696369656e74600082015250565b600061349d60208361239b565b91506134a882613467565b602082019050919050565b600060208201905081810360008301526134cc81613490565b905091905056fea26469706673582212206f413b72dc1d77a14a1b9fe7cd2fd4c9af56102b927ed4f5e00753e049fd9fdc64736f6c63430008110033",
  "linkReferences": {},
  "deployedLinkReferences": {}
}